:100000000C949D020C9468250C94BA020C94BA02CC
:100010000C94BA020C94BA020C94BA020C94BA0270
:100020000C94BA020C94BA020C948D2A0C94612B95
:100030000C94E7230C94BA020C94BA020C94BA0202
:100040000C94BA020C94BA020C94BA020C94BA0240
:100050000C94BA020C948A240C94BA020C94BA023E
:100060000C94BA020C94BA020C94BA020C94BA0220
:100070000C94BA020C94BA020C94BA020C94BA0210
:100080000C94BA020C94BA020C94BA020C94BA0200
:100090000C94BA020C94BA020C94BA020C94BA02F0
:1000A0000C94BA020C94BA020C94BA0235001E00E9
:1000B0001F00200021002200230000002B0014005C
:1000C0001A000800150017000000000039000400A5
:1000D0001600070009000A0000000000E1001D00F2
:1000E0001B0006001900050000000000E000E3000E
:1000F000E2002C002C0050005100000024002500DC
:10010000260027002D002E002A0000001C001800E9
:100110000C00120013002F00300031000B000D0006
:100120000E000F0033003400280000001100100002
:10013000360037003800E5000000000052004F0094
:100140002C002C00E600E7002152E40035003A00C4
:100150003B003C003D003E003F0000002B0014002F
:100160001A00080015001700000000003900040004
:100170001600070009000A0000000000E1001D0051
:100180001B0006001900050000000000E000E3006D
:10019000E2002C002C002878237800004000410069
:1001A00042004300440045002A0000001C001800E3
:1001B0000C00120013002F00300031000B000D0066
:1001C0000E000F0033003400280000001100100062
:1001D000360026782578E50000000000247827788E
:1001E0002C003178E6002D78215220781E0F050072
:1001F000047F3F1F643214643214783C1E1E140ABC
:10020000052223252628292A2C2D2F303233353656
:10021000383A3B3D3E4042434547494A4C4E505197
:10022000535557595A5C5E6062646668696B6D6FBE
:1002300071737577797B7D7F81838587898A8C8EC1
:1002400090929496989A9C9E9FA1A3A5A7A8AAACC9
:10025000AEAFB1B3B4B6B8B9BBBCBEBFC1C2C3C503
:10026000C6C7C9CACBCCCDCED0D1D2D2D3D4D5D6A5
:10027000D7D7D8D9D9DADADBDBDBDCDCDCDCDCDDD8
:10028000DDDDDDDCDCDCDCDCDBDBDBDADAD9D9D8BC
:10029000D7D7D6D5D4D3D2D2D1D0CECDCCCBCAC954
:1002A000C7C6C5C3C2C1BFBEBCBBB9B8B6B4B3B183
:1002B000AFAEACAAA8A7A5A3A19F9E9C9A9896941E
:1002C00092908E8C8A89878583817F7D7B797775F3
:1002D00073716F6D6B6968666462605E5C5A5957D2
:1002E000555351504E4C4A4947454342403E3D3B91
:1002F0003A3836353332302F2D2C2A29282625231B
:1003000022FFAA7F55400001010101010101010105
:1003100002020202020202020203030303030303B6
:100320000304040404040404050505050506060683
:100330000606070707070708080808090909090A40
:100340000A0A0B0B0B0C0C0C0D0D0D0E0E0E0F0FE5
:100350000F10101111111212131314141515161673
:100360001717181819191A1A1B1B1C1D1D1E1E1FE2
:100370002020212222232424252626272829292A31
:100380002B2C2D2D2E2F3031323233343536373859
:10039000393A3B3C3D3E3F40414243444546474855
:1003A000494A4C4D4E4F50515354555658595A5B2B
:1003B0005D5E5F616264656668696B6C6D6F7072CB
:1003C000737577787A7B7D7E8082838587888A8C37
:1003D0008E8F91939596989A9C9EA0A2A3A5A7A96B
:1003E000ABADAFB1B3B5B7BABCBEC0C2C4C6C9CB62
:1003F000CDCFD1D4D6D8DBDDDFE2E4E7E9EBEEF018
:10040000F3F5F8FAFDFF140369006E006400330091
:100410003200330036007600310000000C03740017
:100420006F007300680069000000040309040902FA
:100430003B00020100A0FA090400000103010100D1
:100440000921110100012244000705810308000170
:10045000090401000103000000092111010001222B
:100460007B0007058203200001120100020000004A
:1004700008D804DDE600010102000105010902A11E
:100480000185020901A100050919012908150025A6
:100490000195087501810205010930093115812591
:1004A0007F95027508810609381581257F950175AC
:1004B000088106050C0A38021581257F950175080B
:1004C0008106C0C005010980A101850319012AB771
:1004D00000150126B700950175108100C0050C09B3
:1004E00001A101850419012AA002150126A0029587
:1004F0000175108100C005010906A101050719E079
:1005000029E71500250195087501810295017508F7
:1005100081010507190029FF150026FF00950675C2
:1005200008810005081901290515002501950575A3
:10053000019102950175039101C011241FBECFEFF7
:10054000DAE0DEBFCDBF12E0A0E0B1E0ECEDFEE509
:1005500002C005900D92A430B107D9F723E0A4E0C2
:10056000B2E001C01D92A03AB207E1F70E94461521
:100570000C94182F0C9400008230C8F46A30B8F440
:100580004830A8F4E62FF0E09AE0899FE00DF11DD5
:10059000112483E0EE0FFF1F8A95E1F7E40FF11DB0
:1005A000EE0FFF1FE455FF4F85919491089581E070
:1005B00090E008950E94BC02089581E008950E9491
:1005C000DD02089581E008950E94DD0208950E94F1
:1005D000E402089508950E94EA020895A6E0B0E0BA
:1005E000E4EFF2E00C94C42D49835A839E8330914A
:1005F0000B0289819A8131111AC03E81332399F00F
:10060000222389F00E948708182F682F89819A81F8
:100610000E94640869817A81812F0E946C0F26965E
:10062000E3E00C94E02D0E947508182FF3CF0E9490
:10063000870869817A81F1CFFC01262F40815181A1
:1006400062817381848195810E94EE020895CF9327
:10065000DF93EC0161E00E941C03BE010E94DF02F7
:10066000DF91CF910895CF93DF93EC0160E00E947A
:100670001C03BE010E94EB02DF91CF910895089503
:100680000E9439070E943F032FEF84E39CE0215032
:1006900080409040E1F700C0000008950E944003B0
:1006A0000E94AE2408950E9440030E94BF24089532
:1006B0000F931F93CF93DF938C0161E00E941C0383
:1006C000EC01B8010E94E702811106C080E0DF91D1
:1006D000CF911F910F910895B801CE010E94602221
:1006E0008823A1F3B801CE010E94F620882371F37C
:1006F000B801CE010E94D221882341F3B801CE0176
:100700000E944020882311F3F8018581882361F03D
:10071000C330FCE7DF07E9F058F4C115ECE7DE076A
:10072000A9F0C130DC47B9F0C8010E94E202CFCF86
:10073000CB358CE7D807A9F0CC35ECE7DE0771F0B4
:10074000CA35DC4789F70E94BD0CEECF0E944E03EC
:10075000BDCF0E94C50C0E945303B8CF0E94B30CBA
:10076000E3CF0E94C10CE0CF0E94C4230E94DF03AC
:100770000E94031E08950E94E3030E94191F0E9415
:10078000C9230895089581E008950895CF93DF93D4
:10079000D82F0E94C303C82F882319F08D2F0E94E1
:1007A000C5038C2FDF91CF9108950895CF93C82F63
:1007B0000E94C2038C2F0E94C603CF91089580E04F
:1007C0000E94D60308950E94A9220E94D60308958C
:1007D000CF930E94A922C82F809106028C1779F02E
:1007E000C09306020E94532460930702709308028C
:1007F0008093090290930A028C2F0E94D603CF9116
:100800000895ADE0B0E0E7E0F4E00C94C52D488732
:1008100059876A877B878C879D8791110E94EB0B94
:100820001F8286E0FE013896DE01119601900D923E
:100830008A95E1F78D8181110DC029813A814B8123
:100840005C816D817E818F810E941E0B2D96E2E07E
:100850000C94E12DCE0101960E9427038111EDCF6A
:10086000F5CFFC012481213021F4808191810E9407
:10087000B9080895662329F00E94DD150E94B0167C
:1008800008950E943716FACFCF93C82F8823B9F066
:100890008CEF8C0F813AA8F46C2F80910401909119
:1008A00005010E943223882329F08C2F0E94AB0B74
:1008B0000E94240C8C2F0E94A30B0E94240CCF9129
:1008C000089580E28C0F883048F4C77081E001C041
:1008D000880FCA95EAF70E94CE0BEFCFEBE5EC0F3D
:1008E000E33040F4F0E0E556FE4F808190E00E9456
:1008F000D622E5CFE8E5EC0FEB3150F4F0E0EE0F57
:10090000FF1FEB59FE4F808191810E94FB22D7CFC0
:1009100083E38C0F833198F661E08C2F0E943A04B8
:10092000CECF882381F19CEF980F913A28F40E9452
:10093000AB0B0E94240C089590E2980F983050F46D
:10094000877091E001C0990F8A95EAF7892F0E947C
:10095000D40BEFCF9BE5980F933028F490E080E024
:100960000E94D622089598E5980F9B3128F490E0D4
:1009700080E00E94FB22089593E3980F933118F4CE
:1009800060E00E943A0408951F93CF93DF93182FDD
:10099000EB010E944404209739F4812F0E949104B6
:1009A000DF91CF911F9108958FE99FE00197F1F7B3
:1009B00000C000002197EFCF70E060E0893311F4B0
:1009C00060E570E00E94C4040895882321F00E942D
:1009D000CE0B0E94240C0895882321F00E94D40B92
:1009E0000E94240C0895B0E0A0E0E9EFF4E00C943C
:1009F000BE2D6C01D62FC72FFC01158106810295F3
:100A00000F700E94C40BE82E8823E9F0E12E112319
:100A1000D1F08C2F807F803451F080E28D0F8830B0
:100A2000F8F0011104C08C2F807E8032C9F08091D3
:100A30004C0382FF15C082E00E94870C0E94C40B09
:100A400091E0E82EE926BC2EB2949FE0B922FBE0AB
:100A5000FB15B8F1EB2DF0E0E65EF04D0C947E2D29
:100A6000E12CF1CF0C2F0F70C07F11F00295007FA9
:100A7000112399F0002359F080E28D0F883010F097
:100A8000D11107C0802F0E94CE0B0E94240C8D2F05
:100A90005AC0802F0E94DE0BF8CF8D2F0E94910448
:100AA000002379F080E28D0F883010F0D11104C05E
:100AB000802F0E94D40B03C0802F0E94E40B0E9461
:100AC000240CEB2DE850FF0B349720F40E94A92250
:100AD0000E94D603EE2089F00E94C00B80FD0DC05D
:100AE000F60115820E94BA0B0E94C207C6010E943D
:100AF00000070E94BA0B0E94D207CDB7DEB7E9E02B
:100B00000C94DA2D2C2F2F70F22EC07FC03219F0EA
:100B1000F29480EFF822DD2341F0D130D1F111239E
:100B200009F444C00023F1F0B2CF80914C0382FD60
:100B300015C0112359F0FF2029F08F2D0E94CE0BF4
:100B40000E94240C80E00E944404BBCF80E00E94FD
:100B50009104FF2009F4B5CF8F2DABCF112369F09D
:100B6000011104C08F2D0E94E504ABCF013009F0C4
:100B7000A8CF8F2D0E94020CA4CF0111A2CF8F2DE0
:100B80000E94EC048F2D0E940E0C8F2D0E94F20B00
:100B900098CF112321F0063008F093CFE3CF053032
:100BA00008F08FCF8F2D0E94EC048BCF0023D1F360
:100BB000D93349F43FEF87EE93E0315080409040C5
:100BC000E1F700C000008D2F0E9491047ACF8C2F96
:100BD00086958695837069F0813009F072CF8D2FEC
:100BE0009C2F9370111102C080E090E00E94FB22C4
:100BF00068CF8D2F9C2F9370111102C080E090E080
:100C00000E94D6225ECF612F8D2F0E943A0459CFC9
:100C10008C2F8370A1F5111154CF4D2F429546951D
:100C20004770440F440F2D2F2F7030E0042E02C068
:100C3000220F331F0A94E2F790E080E0D4FF09C04E
:100C40008FE090E002C0880F991F4A95E2F78095E7
:100C50009095C695C695C370822B932BC23049F0F0
:100C600058F4C13019F00E9492072BCF0E948907D7
:100C700028CF0E949B0725CF0E94860722CF86950A
:100C8000112311F08C2F8170882309F41ACF4D2F76
:100C9000429546954770440F440F2D2F2F7030E03A
:100CA000042E02C0220F331F0A94E2F790E080E086
:100CB000D4FF09C08FE090E002C0880F991F4A95C9
:100CC000E2F780959095C695C695C370822B932BBD
:100CD000C23049F058F4C13019F00E94FD07F1CE3E
:100CE0000E94F407EECE0E940608EBCE0E94AA07EF
:100CF000E8CECF70112329F08C2F0E94C2078D2FD0
:100D000032CF8D2F0E94EC048C2F0E94D207D9CEB7
:100D1000D23F41F160F4D03FB9F0D13F81F01123CF
:100D200009F446C00111B3CE8C2F8F711FC0D33F81
:100D300001F1D43FA1F780914C0382FD24C08C2F98
:100D40008F71112311F312C0112341F0053008F007
:100D5000B8CE8C2F8F710E94E407B3CE063008F016
:100D6000B0CEF7CF8C2F8F711111CFCF0E94C20759
:100D7000A8CE112329F08C2F8F710E94B607A1CE27
:100D80000E94B1079ECE112349F0CF718C2F0E9493
:100D9000C20763E08C2F0E94690C93CE81E00E9411
:100DA000870C023008F48DCE82E00E94870C89CE39
:100DB000002359F0D93309F006CFEFEFF7EE23E027
:100DC000E150F0402040E1F7FCCE8C2F8F719DCF99
:100DD0000F931F93CF93DF93EC01688179818D810D
:100DE0000E94C4088C010E940F080E948507B80168
:100DF000CE010E94F304DF91CF911F910F910895CE
:100E0000CF93DF93EC018C81882399F0CE010E946F
:100E10005803811111C00E94C40B882351F08D81A9
:100E2000882339F080914C0382FF03C082E00E9446
:100E3000870CDF91CF910895CE010E94E806CE0184
:100E40000E943303F6CF90E080E00E94D62290E02B
:100E500080E00E94FB220E94EB0B0E94240C0E9467
:100E6000CC160E94B01608950E94B30B0E9423076F
:100E700008950E94DB0B0E943407089592959F709D
:100E8000963091F058F4925F9F70923058F4803F02
:100E900019F030F4883E30F481E008959A5FF4CF81
:100EA000843FD1F380E00895883EB0F3813FD1F7CD
:100EB000F3CFFC012481222339F0808191810E94AB
:100EC000B9080E943E07089580E00895A6E0B0E0CA
:100ED000ECE6F7E00C94C52D2696E2E00C94E12DAB
:100EE000A7E0B0E0E6E7F7E00C94C52D2796E2E036
:100EF0000C94E12D08950E947A0708950E947B07C3
:100F00009093370280933602089508950E947E07D9
:100F100008952091360230913702822B932B0E9444
:100F20007E07089520913602309137028223932361
:100F30000E947E0708952091360230913702822761
:100F400093270E947E0708950E947A0708950E94C1
:100F5000A40708950E94A707909335028093340256
:100F6000089590E080E00E94AA07089521E030E013
:100F7000A90102C0440F551F8A95E2F7CA010E94D9
:100F8000AA07089521E030E002C0220F331F8A959E
:100F9000E2F78091340290913502822B932B0E94CC
:100FA000AA07089521E030E002C0220F331F8A957E
:100FB000E2F720953095809134029091350282239A
:100FC00093230E94AA07089521E030E002C0220F77
:100FD000331F8A95E2F7809134029091350282277F
:100FE00093270E94AA070895209134023091350278
:100FF000822B932B0E94AA070895209134023091EE
:101000003502822393230E94AA0708952091340277
:1010100030913502822793270E94AA0708950895E8
:10102000262F277091E001C0990F2A95EAF723E057
:10103000769567952A95E1F7660F771F660F771FFC
:10104000FA01E60FF71F50E040E0682F70E0819151
:10105000DF0111979B01042E02C0369527950A9453
:10106000E2F7217021952827292328272C934F5F09
:101070005F4F4430510559F70895A82FA77023E01A
:10108000969587952A95E1F7880F991F880F991FE4
:10109000FB01E80FF91F50E040E080E0219130E0D3
:1010A0000A2E02C0369527950A94E2F7217033275D
:1010B000042E01C0220F0A94EAF7822B4F5F5F4F84
:1010C0004430510559F70895262F9A3068F4883036
:1010D00058F438E0939FB0011124680F711D4CE063
:1010E00052E0822F0E94100808959A3070F48830E0
:1010F00060F448E0949F900111246CE072E0820F4C
:10110000932F911D0E943D08089580E00895B0E05E
:10111000A0E0EDE8F8E00C94BE2D7C0100913402D3
:10112000109135028091360290913702082B192BCD
:10113000CFE0D0E0CC24C394D12CBC2EC6010C2E21
:1011400002C0880F991F0A94E2F780239123892B0C
:1011500049F4219790F7B12C8B2DCDB7DEB7E9E09C
:101160000C94DA2DB7018C2F0E94780F019789F328
:10117000F3CFCF93DF93EC010E948708BE010E945A
:10118000780FDF91CF9108951F93CF93DF93EB01F9
:1011900090910B02992339F0CB010E94B908DF919D
:1011A000CF911F910895882369F0CB010E94870891
:1011B000182F682FCE010E946408BE01812F0E9463
:1011C000780FEDCFCB010E947508182FF6CF1F9333
:1011D000CF93DF93C091380217E0809139028C13CE
:1011E00004C0DF91CF911F910895D0E01C9FF001C2
:1011F0001D9FF00D1124E65CFD4F2081318142815D
:1012000053816481758186810E9470072196C77021
:10121000E4CF209172023091730240917402509198
:1012200075026091760270917702809178020E9437
:1012300070070895CF93DF9380917802807F09F043
:101240004DC080917702882309F448C0E0913802AC
:1012500050913902C0917302D09172026091740270
:101260007091750247E05E17C9F18E2F90E0E49F00
:10127000F0011124E65CFD4F2481222391F1489F67
:10128000F001499FF00D1124DF01A65CBD4F1196BE
:101290002C9111972C1325C02C912D1322C015963B
:1012A0002C91159721111DC012962D913C91261B52
:1012B000370B283C3105A8F4809178028F7080614B
:1012C00080937802E05CFD4F80818F708061808325
:1012D00082E792E00E9400070E94E708DF91CF9129
:1012E0000895FC013196E770BECF482F2091380257
:1012F0009091390257E0291302C080E0089530E050
:10130000529FF001539FF00D1124E65CFD4F818147
:10131000681306C08081481303C085818111EECF18
:101320002F5F3F4F2770E7CFA4E1B0E0EAE9F9E093
:101330000C94BB2D8C0186E0F801DE011F96019014
:101340000D928A95E1F7F8018481E58092E7A92E54
:1013500092E0B92E9091760291111FC08823D1F0AE
:10136000EE20A9F0C8010E945907F82E882379F0D1
:1013700087E0F801D50101900D928A95E1F7C5014A
:101380000E9431040E941A090E9409095FC0C80125
:101390000E940007FF24F39459C0C080D18082804E
:1013A0009380F09077022091740230917502A4012D
:1013B000421B530BFF2009F4F9C0483C510508F0CB
:1013C000A7C0882309F442C09091730280917802EB
:1013D000282F207F09F05CC09D1116C090917202E9
:1013E000C91212C0E1104EC08F70806180937802E4
:1013F0000E94090982E792E00E940007809178022A
:10140000F8018683F12C22C0E1103CC06D2D8C2D9B
:101410000E9475096D2D8C2D0E947509E82E811191
:10142000F1CFCF86D88A8F8598890E94B908292F55
:1014300022952F70243078F49F702230A8F09923E1
:10144000B9F0F8019681907F99F4FE2C8F2D649667
:10145000ECE00C94D72D2A5F2F70223068F0C80181
:101460000E940007EF2CF1CF992311F0882369F334
:10147000805E883050F3F3CF803F38F3815F833054
:1014800070F7E3CF80917802816080937802BACFC1
:101490009D1113C090917202C9120FC0E1100DC0CE
:1014A0008683C8010E94000787E0F801A2E7B2E046
:1014B00001900D928A95E1F767CFC8010E94590704
:1014C000882309F464CFEE2009F461CF809178027B
:1014D000803288F020917202309173023987288718
:1014E0009B868A86909176029C871D868E87CE0188
:1014F00008960E94000787E0F801A2E7B2E0019099
:101500000D928A95E1F70E941A090E94090942CFBB
:1015100090917802292F207FA1F4682D9A8A898AD8
:10152000A6017A899E2D0E94660782E792E00E94BA
:10153000000787E0F50111928A95E9F70E940909F1
:1015400061CF882309F482CF809173028D1110C07E
:1015500080917202C8120CC0E1100AC09683C801C3
:101560000E94000787E0F50111928A95E9F76ECF96
:10157000C8010E945907882309F409CFEE2009F415
:1015800006CF80917802803208F4B5CF20917202A4
:10159000309173023A8329839C828B8290917602E8
:1015A0009D831E828F83CE010196A3CF483C5105B7
:1015B000B8F5882309F4EECEFE2CEE2009F4E7CE30
:1015C000809173028D111EC080917202C8121AC0E0
:1015D0008091780280FD0DC0982F907F51F0868316
:1015E000903F09F45ECF982F907F905F8F70892B8A
:1015F00057CF87E0F801A2E7B2E001900D928A95FB
:10160000E1F724CFC8010E945907811174CF80915E
:101610007802816080937802C8010E94000716CF8B
:10162000682D9A8A898AA6017A899E2D0E9466076A
:1016300087E0F50111928A95E9F7A6CEAEE0B0E019
:10164000E4E2FBE00C94C42D288739874A875B8746
:101650006C877D878E87CE0108960E949409882327
:10166000B1F06C85662341F0288539854A855B8514
:101670007D858E850E94700717E0809138029091D9
:10168000390289133DC02E96E3E00C94E02D87E0EB
:10169000FE013896DE01119601900D928A95E1F7D0
:1016A0008C85882349F32091390230E0C9010196E5
:1016B00087709927409138024817190699F097E0EA
:1016C000929FD001939FB00D1124A65CBD4FFE01E7
:1016D000319601900D929A95E1F7809339020E941C
:1016E000E708CACF0E9439071092390210923802D7
:1016F00087E0E2E7F2E0DF011D928A95E9F7BCCFCF
:10170000819FC0011124865C9D4F0E94940988230B
:1017100009F4B9CFE09138021E9FF0011124E65C74
:10172000FD4F2081318142815381648175818681A1
:101730000E9470078091380290E001968770992787
:10174000809338029ACF682F80910401909105010F
:101750000E9468230895682F8091040190910501EB
:101760000E946B23089580910401909105010E94CD
:101770006E230895809181028695869586950895B9
:10178000809181028770089590918102977081E025
:1017900009F480E0089580918D02089590918D0262
:1017A000892B80938D020895809590918D029823C6
:1017B00090938D02089510928D02089590918C025D
:1017C000892B80938C020895809590918C029823A8
:1017D00090938C02089510928C02089508950E94AF
:1017E000EE0B089590918202292F282331F08095E5
:1017F0008923809382020E94EF0B089508950E942E
:10180000FE0B089590918302292F2823281729F091
:10181000982B909383020E94FF0B0895909183026E
:10182000292F282331F080958923809383020E94F9
:10183000FF0B089580918302882329F01092830280
:1018400080E00E94FF0B0895CF93DF93E0910401A5
:10185000F091050180918D028083E0910401F09167
:101860000501808190918C02892B80839091830265
:10187000992381F0E0910401F09105018081892B89
:10188000808380910401909105010E9420238111A1
:101890000E941A0CC0910401D091050148E050E06B
:1018A00069E772E0CE010E948B2E892B59F088E007
:1018B000FE01A9E7B2E001900D928A95E1F7CE0111
:1018C0000E94BD22DF91CF91089508950E94650C7A
:1018D000089590914C0392FF11C098E0899F900168
:1018E0001124622B609381020E94C20780918102C1
:1018F0008695869586950E94660C08950E94C2077B
:1019000008951092810280E00E94660C08959091E3
:1019100081028095892380938102282F277069F4A2
:10192000891759F090914C0392FF07C086958695D0
:1019300086950E94D2070E94810C089590914C03D5
:1019400092FB222720F9281769F080FB92F99093E7
:101950004C0380914B0390914C030E94E60C82E073
:101960000E94870C089580914C0382FB882780F9A0
:1019700091E089270E949E0C089581E00E949E0CB0
:10198000089580E00E949E0C08956FEF7FEF90E035
:1019900080E00E94E32E089590E080E00E94AF2E48
:1019A00021E0863E9E4F09F020E0822F089582E0DC
:1019B00090E00E94A12E089583E090E00E94A12E65
:1019C000089584E090E00E94AF2E0895BC0184E069
:1019D00090E00E94E32E0895AB01BC018FE090E0FF
:1019E0000E94D72E0895AB01BC0183E190E00E94D4
:1019F000D72E089560E070E0CB010E94F30C0895AB
:101A000060E070E0CB010E94EC0C0E94FA0C08959B
:101A1000A8E0B0E0EEE0FDE00C94C52D66EE7EEFB0
:101A200090E080E00E94E32E60E082E090E00E947F
:101A3000C52E60E083E090E00E94C52E1092370230
:101A40001092360260E074E184E090E00E94E32EA0
:101A500060E086E090E00E94C52E6FEF87E090E0A6
:101A60000E94C52E40E050E0BA0188E090E00E945C
:101A7000D72E60E084E290E00E94C52E60E087E10E
:101A800090E00E94C52E60E08CE090E00E94C52EA0
:101A900060E08DE090E00E94C52E19821A821B82C0
:101AA0001C821D821E821F82188648E050E068E179
:101AB00070E0CE0101960E94B52E40E050E0BA01E0
:101AC00080E290E00E94D72E0E94000D2896E2E06E
:101AD0000C94E12D0E94080D0895682F8EE090E08F
:101AE0000E94C52E0895A6E0B0E0E9E7FDE00C9461
:101AF000C32D0E9447248C0180918E0290918F0209
:101B00008017910781F019821A820E944724682F5A
:101B100049815A81792F80E090E00E94010410935E
:101B20008F0200938E022696E4E00C94DF2D0E9433
:101B3000941060939E0270939F028093A0029093F2
:101B4000A10260939A0270939B0280939C029093EF
:101B50009D020895089508950E94AA0D089508957C
:101B60000E94AF0D089581E0089589EB90E10E94F5
:101B700053150E94AB0D0E94AC0D08950E94D9121E
:101B80000895089508950E94C10D0E94C20D089500
:101B90000E94D8100E94D50308950E943E240E94FE
:101BA0006E100E94F1120E94FE110E94C80D0E9448
:101BB000DE200E94C81E0E940D130E94B00D0895E1
:101BC000A6E0B0E0E6EEFDE00C94BC2D0E94B30D63
:101BD00081110EC00E94730D0E94D9120E94581FDD
:101BE0000E94EE160E94E8032696EBE00C94D82D96
:101BF0000E94581280E9A82E82E0B82E750110E0EC
:101C0000F70101917F01812F0E94FE101F5F1A30A2
:101C100009F441C00817A1F38091A20281FD0E943E
:101C200004110E94BE0DC82E10E099249394812FB8
:101C30000E94FE10082FF50181915F01081729F11C
:101C4000D02ED826F12CEE24E3948D2D8E21A9F0F0
:101C5000CC2099F0F9821A830E9447249C838B83BD
:101C60009D8291E0802F8E2109F490E049815A8174
:101C70006B817C818D810E940104F394EE0CF8E06D
:101C8000FF12E3CFF501319700831F5F1A3079F619
:101C90000E94970DA1CF0813BFCF9CCF1F93CF9366
:101CA000DF930E947D0FEC01C11580E5D807F0F5A8
:101CB000C11580E4D80708F09CC0C03ED10520F5CE
:101CC000CD3CD10508F082C0C83AD10578F4C53AB8
:101CD000D10508F073C0C130D10519F1209709F181
:101CE000C430D105F0F4D0E0C0E01BC0C33CD10546
:101CF000D0F7C85AD0E0CC0FDD1FC256DE4F099096
:101D0000D881C02DD4640DC0C11580E2D80708F079
:101D1000D1C0C11581E0D80708F05AC0C83ED1052E
:101D200010F7CE01DF91CF911F910895C03682E563
:101D3000D80718F5C03482E5D80708F06BC0C03268
:101D400082E5D80708F05FC0C11582E5D80708F41E
:101D500097C02C2F2695269580E2289F900111246C
:101D60008C2F8370C1E0D0E002C0CC0FDD1F8A95BC
:101D7000E2F7C22BD32BDD68D4CFC03A82E5D80777
:101D800060F4C03882E5D80708F459C0CF71D0E0BC
:101D9000DC2FCC27C46FD06AC4CFC03C82E5D80703
:101DA00008F462C0C03E82E5D80708F09CCFDC2F63
:101DB000CC27CC27DF71C06FD06AB3CFC55AD0E033
:101DC000CC52DE4FC881D0E0D064ABCFD065A9CF74
:101DD0008D2F0E941F10182FCE0199270E947D0F72
:101DE000C12FD0E0DC2FCC27CC27DF71C82BD92B1B
:101DF00098CFCE0199270E947D0FCC27DF70C82B8A
:101E0000D92BD06A8ECFCF71D0E0DC2FCC27C16F19
:101E1000D06A87CF2C2F26952695277080E2289FA1
:101E2000900111248C2F8370C1E0D0E002C0CC0F50
:101E3000DD1F8A95E2F7C22BD32BDC6872CF2C2FE3
:101E400026952695277080E2289F900111248C2FDB
:101E50008370C1E0D0E002C0CC0FDD1F8A95E2F7AD
:101E6000C22BD32BDA685DCF8C2F8F710E941F108D
:101E7000C82FD0E0DC2FCC27CC27DF71D06251CF28
:101E80008C2F8F710E941F1055E0D695C7955A95DB
:101E9000E1F7CF70D0E0DC2FCC27282F30E084FF93
:101EA00005C044E0220F331F4A95E1F7C22BD32B24
:101EB000D06937CF8D2F8F710E941F10182FCE0140
:101EC00099270E947D0FC12FD0E0DC2FCC27CC2793
:101ED000DF71C82BD92BD2CF462F7A3030F468303F
:101EE00020F4672F0E94DA02089590E080E00895C0
:101EF0000E946C0F0E944E0E089582389105B9F130
:101F0000B0F48133910509F47DC048F4893291051C
:101F100009F46DC08A32910509F47BC008958533B8
:101F2000910509F45FC08933910509F10895833E55
:101F30009105D9F138F4803E910529F1823E910551
:101F400079F10895863E9105D9F1873E910509F40E
:101F50003EC0843E910541F520914C0321FF24C0F1
:101F600080914B0384FD19C087EE90E00895209185
:101F70004B03237009F05AC020914C0323FF14C077
:101F800089E290E0089520914B0320FD38C0309104
:101F90004C0330FF09C024FF43C090E080E0089567
:101FA00020914B0322FDF7CF089520914B0322FD92
:101FB0003AC030914C0330FD39C024FFF5CFEDCF4E
:101FC00020914B0323FFF0CF24FDE7CFCDCF20910D
:101FD0004B0323FD2EC030914C0331FFEECF84EE36
:101FE00090E0089520914B0325FFDECFC9CF2091CB
:101FF0004B0325FD21C020914C0323FFD5CF89E35E
:1020000090E0D2CF20914B0326FFCECF8AE290E022
:10201000089520914B0326FFC7CF81E390E00895F8
:1020200083EE90E0089582EE90E0089580EE90E0D7
:10203000089586EE90E0089585E390E008959091EC
:102040004B0392FF10C041E0282F2471243009F087
:1020500040E031E0282F2871283009F030E04317A4
:1020600011F02CE0822793FF10C041E0282F24714B
:10207000243109F040E031E0282F2871283109F09F
:1020800030E0431711F02CE0822730914C0330FFF1
:1020900010C051E0282F2171213009F050E041E0BB
:1020A000282F2871283009F040E0541711F029E05A
:1020B000822731FF10C041E0282F2171213109F022
:1020C00040E031E0282F2871283109F030E0431733
:1020D00011F029E0822794FD877E0895109247032E
:1020E000109248031092490310924A030895CF9228
:1020F000DF92EF92FF926B017C010E94D912811155
:102100000EC00E945324C61AD70AE80AF90AC092E0
:102110004703D0924803E0924903F0924A03FF90AC
:10212000EF90DF90CF9008950F931F930E94D912E4
:10213000882329F00E9453241F910F9108950E9433
:102140005324009147031091480320914903309193
:102150004A03600F711F821F931FEECF0E94D91296
:10216000882319F00E94472408950E949410CB01FF
:10217000089580E008950E94C50C08950E945812A9
:102180002FEF86E791E0215080409040E1F700C0BA
:1021900000000E94581280E00E94FE1080FF04C0E0
:1021A0000E94BB100E94AE2408950E94BE100895A4
:1021B0000E94CC0C811102C00E946A0D0E94D70CB3
:1021C0008093A2020E94E10C90934C0380934B03F6
:1021D0000E94D5100E94DC0C90E00E94860780913E
:1021E0003402909135020E94A707089508950E9435
:1021F000F610089508950E94FA100895E82FF0E06F
:10220000E85AFC4F80810895089580EA8A95F1F795
:10221000089500C008950E940511089508950E9430
:102220000E110895A5E0B0E0E8E1F1E10C94C12DB4
:102230000E94D912F82E60916203882309F440C0ED
:1022400085E0E82E8E010F5F1F4FF8018E2D119251
:102250008A95E9F7862F90E0B801885A9C4F0E9432
:102260001B138823B9F080914D0390E045E050E0C6
:10227000B801885A9C4F0E948B2E21E02093A30224
:10228000892B91F4F12C0E94FB108F2D2596E6E00E
:102290000C94DD2D8091A3028823A1F3F801119203
:1022A000EA94E9F71092A302A0914D03B0E0A85A76
:1022B000BC4F85E0F80101900D928A95E1F7E3CFDC
:1022C00070E0685A7C4F80914D0390E0885A9C4F93
:1022D0000E94A2130E940F11D8CFF894E82FE29524
:1022E000EF70F0E031A1282F2F7081E090E001C065
:1022F000880F2A95EAF7982F9095932391A392A19E
:10230000892B82A378940895CF93DF93CEE0D1E018
:1023100089918F3F11F00E946D1181E0C331D80780
:10232000B9F7C6E0D1E089918F3F11F00E946D119D
:1023300081E0CE30D807B9F7DF91CF910895B0E0B2
:10234000A0E0E5EAF1E10C94BF2DEC01D62E062FBA
:1023500010E0C801825F9E4F7C01FC0180818F3FAD
:1023600009F445C0F894E82FE295EF70F0E091A1F0
:102370008F7021E030E001C0220F8A95EAF7892FA3
:10238000822B81A382A12095282322A378940E94E6
:102390000911E6E0F1E04EE051E031E0C12C21917D
:1023A0002F3F51F1A22FA295AF70B0E090968C9183
:1023B00090E02F7002C0959587952A95E2F780FDF1
:1023C0001BC0832FC82A330F4E175F0741F7F70151
:1023D00080818F3F11F00E946D1161E0C11001C03A
:1023E00060E08D2D0E940B11C00FD11FC882CDB7A8
:1023F000DEB7E8E00C94DB2D80E0E4CFADE0B0E0A8
:10240000E4E0F2E10C94C52D8091130181112CC000
:1024100085E0E8E5F1E0DE01199601900D928A95DC
:10242000E1F7898580930E018A8580930F018B8562
:10243000809310018C85809311018D85809312010A
:1024400088E0EDE5F1E0DE01119601900D928A95AC
:10245000E1F7FE013196A6E0B1E0CE0109962191A7
:102460002D93E817F907D9F78091130195E08111B1
:1024700090E09093620385E0891B80934D030E9456
:1024800084118AE0E8E5F3E0DF01982F1D929A9528
:10249000E9F7EEE4F3E0DF011D928A95E9F785E0C4
:1024A0000E9496120E94F7102D96E2E00C94E12D06
:1024B000AAE0B0E0EEE5F2E10C94C22D8E010F5FD0
:1024C0001F4F8AE0F80111928A95E9F7F12C6F2DE0
:1024D000C8010E949F11F394F5E0FF12F8CF4AE083
:1024E00050E0B8018EE493E00E948B2E21E000972B
:1024F00009F420E0892B41F08AE0F801AEE4B3E072
:1025000001900D928A95E1F76091620370E0685A3C
:102510007C4F45E08EE493E00E949712182F0E94B2
:102520001211812B2A96E5E00C94DE2D0895CF92AE
:10253000DF92EF92FF920F931F93CF936C017B0179
:10254000042F222349F081E08093A6020E944724B1
:102550009093A5028093A402C091A602C1110AC063
:10256000C0E08C2FCF911F910F91FF90EF90DF90E3
:10257000CF9008958091A4029091A5020E945F24BB
:10258000059770F310E0A801B601C7010E948B2ED9
:10259000892B41F0A801B601C7010E94982E109224
:1025A000A602DFCFC0E0FBCF83B186FB882780F98E
:1025B00008958091A902811107C00E940D2D8823E2
:1025C00051F081E08093A90281E09091A9029130BD
:1025D00009F080E0089582E08093A9020E94082D0E
:1025E000F3CF26982E988FE891E00197F1F700C07D
:1025F00000000E94D412809313018091130166E0C1
:10260000882349F080E00E9474180E94D912811139
:102610000E945113089586E0F6CF0E94D9128111CD
:1026200002C00E945413089581E09091AA029A304A
:1026300008F080E008950F931F93CF93DF93EC0190
:102640008B018091AA028A30B8F4B801CE010E94B1
:102650009F13C82F811122C08091AA028F3FB9F425
:102660000E9447249093A8028093A7028C2FDF91A9
:10267000CF911F910F9108958091A7029091A80288
:102680000E945F24843F914000F7C0E0EFCF8F5F4E
:102690008093AA028A3020F7C1E0E8CF1092AA0204
:1026A000E5CF0E94222508950E9425250895B0E0D7
:1026B000A0E0EDE5F3E10C94C02D7901C82F880F5F
:1026C000DD0B41155105A9F0FE0193E0EE0FFF1F50
:1026D0009A95E1F7EC5EFE4F8181928185559D4F81
:1026E000208130E04217530708F49A01A9010E94A3
:1026F000982ECE010E940E26D82E8823D1F00115E7
:102700001105B9F083E0CC0FDD1F8A95E1F7FE01DA
:10271000EC5EFE4F438150E00417150708F4A80152
:10272000CC5EDE4F6C817D8165557D4FC7010E9477
:10273000982E8D2DCDB7DEB7E7E00C94DC2D0E94EE
:10274000CC1408950E94ED140895A4E0B0E0EBEAE3
:10275000F3E10C94C32D6091CD027091CE02809173
:10276000CF029091D0020E946E2411E06436710570
:102770008105910518F10E9494106E5F7F4F8F4F75
:102780009F4F69837A838B839C8310E000E030E065
:1027900020E044E050E0BE016F5F7F4F82E00E9486
:1027A0005713182F882351F00E9453246093CD02B1
:1027B0007093CE028093CF029093D002812F249603
:1027C000E4E00C94DF2DB0E0A0E0E9EEF3E10C943E
:1027D000BD2D7C015B016A010E94141301E010E031
:1027E000882311F00AE010E0C1E0D0E0B501C70194
:1027F000F6010995811104C021960C171D072CF4D0
:10280000CDB7DEB7EAE00C94D92DCC9F9001CD9FD7
:10281000300D300D112490E080E045E34A95F1F74A
:102820000000019682179307C1F7E0CFABE0B0E05C
:10283000ECE1F4E10C94C32DCE0101960E94DA1D67
:102840001B856091D1027091D2028091D302909148
:10285000D4020E946E24643671058105910510F43E
:102860001123C1F010E000E030E020E04BE050E048
:10287000BE016F5F7F4F83E00E945713882369F08A
:102880000E9453246093D1027093D2028093D302AA
:102890009093D4020E94D71D81E02B96E4E00C9423
:1028A000DF2DA6E0B0E0E7E5F4E10C94BD2D7B015F
:1028B000C090D701D090D80101E010E09E012A5FBE
:1028C0003F4F50E040E070E060E080E00E9457132E
:1028D000182F882309F448C056018FEFA81AB80AA8
:1028E0006091C9027091CA028091CB029091CC0292
:1028F0000E946E24643671058105910568F105E03A
:1029000010E09E012F5F3F4F50E040E070E060E03C
:1029100081E00E945713D82E65E070E0C5010E9447
:10292000DF2011E09E81981310E01D2141F10E94EB
:1029300053246093C9027093CA028093CB02909390
:10294000CC0285E0FE013196A4ECB2E001900D923C
:102950008A95E1F711E013C065E070E0C5010E94BF
:10296000DF209E818913CBCF85E0F6013196DE0111
:10297000119601900D928A95E1F71111E2CF85E051
:10298000E4ECF2E0D70101900D928A95E1F7812FF6
:102990002696EAE00C94D92D0F931F93CF93DF93E3
:1029A000EC018B0141E554E10E94E313811106C063
:1029B00080E0DF91CF911F910F91089545EA53E197
:1029C000B801CE010E94E313882391F346E154E15C
:1029D000B801CE010E94E313ECCFABE0B0E0E3EF2F
:1029E000F4E10C94BF2D0091D7011091D801C801DA
:1029F000019625E0FB01DC0101900D922A95E1F79B
:102A000065E070E00E94DF20F801808366817781B5
:102A100080859185C090C002D090C102E090C20232
:102A2000F090C3026C157D058E059F0551F06093F3
:102A3000C0027093C1028093C2029093C3020E94AD
:102A400077108BE0F8013A96DE01119601900D9215
:102A50008A95E1F7F801148A8B85882329F060E0D4
:102A6000CE0101960E94231F2B96E8E00C94DB2DEB
:102A70000E94DE270E94CD0D0E94EB2708950E9440
:102A8000F0270E94E00D0E940A2808950E94E0238A
:102A90000E94C4270E94B50D0E9438150E943F1560
:102AA0000E94C30DFBCF909305028093040208950A
:102AB000282F35EB2303C001112497FF04C0805851
:102AC0009109892F089580589F4FFBCF8091DB0299
:102AD00080FF0DC06091390170E0660F771F60388C
:102AE000710570F56115710569F1862F089581FFF3
:102AF00007C06091390184E0689FB0011124EFCFD5
:102B00006091390182FD0AC08091DA028823A9F020
:102B10002091380160913901821710F088E0ECCFE4
:102B2000869FC001112433E0880F991F3A95E1F781
:102B3000622F70E00E94482DD2CF68E070E0D5CFC0
:102B40008FE7089581E008958091DB0280FF0CC03B
:102B50006091350170E0759567957595679561157C
:102B6000710549F1862F089581FF06C060913501F6
:102B700070E075956795F3CF6091350182FD0BC0CC
:102B80009091D9029923A1F060913401809135018F
:102B9000961738F0682F70E06038710500F38FE702
:102BA0000895899FC001112470E00E94482DF4CF40
:102BB00061E070E0D7CF81E008958D3C31F40E9450
:102BC000661581958093DF0208958E3C19F40E946A
:102BD0006615F8CF8F3C31F40E946615819580937D
:102BE000DE020895803D19F40E946615F8CF893DF4
:102BF00029F40E94A4158093E00208958A3D21F4EF
:102C00000E94A4158195F7CF8B3D31F40E94A41545
:102C100081958093E10208958C3D19F40E94A415DA
:102C2000F8CF9FE2980F983070F4815D990B21E006
:102C300030E001C0220F8A95EAF78091DD02822BF5
:102C40008093DD0208958D3D31F48091DB02816037
:102C50008093DB0208958E3D21F48091DB02826037
:102C6000F7CF8F3DB9F78091DB028460F1CF4091BF
:102C7000DE028D3C59F48091DF0287FF0DC0109277
:102C8000DF0241110BC01092DA0208C08E3C81F4C1
:102C90008091DF0218169CF3442381F08091E002BA
:102CA0009091E102892B09F05AC01092D90208953F
:102CB0008F3C49F447FFF0CF1092DE028091DF0293
:102CC0008111ECCFE0CF803D19F41416ACF3E4CFC2
:102CD0009091E002893D29F41916F4F61092E00271
:102CE000DBCF8A3D19F497FFD7CFF8CF9091E1025F
:102CF0008B3D29F497FFD0CF1092E102CDCF8C3DD0
:102D000019F41916CCF3C8CF9FE2980F983090F4BD
:102D1000815D990B21E030E0B90102C0660F771F99
:102D20008A95E2F7CB0180959091DD02892380930B
:102D3000DD02B2CF8D3D31F48091DB028E7F809336
:102D4000DB02AACF8E3D21F48091DB028D7FF7CF8D
:102D50008F3D09F0A1CF8091DB028B7FF0CF0895EA
:102D60000E9447249C019091DE028091DF02982B03
:102D700021F03093D8022093D7029091E002809105
:102D8000E102982B21F03093D6022093D5028CEDEE
:102D900092E00E94C822089586E0ECEDF2E0DF01A7
:102DA0001D928A95E9F71092DA021092D9021092D8
:102DB000DB020895FC01828181110EC083818111A3
:102DC0000BC08481811108C091E08581811101C00F
:102DD00090E0892F8170089581E0FCCFA6E0B0E0FB
:102DE000E4EFF6E10C94C42D86E0ECEDF2E0DE01B8
:102DF000119601900D928A95E1F71092DE021092E1
:102E0000DF021092E0021092E1028B819C81892BFB
:102E100089F08091D7029091D8020E945F24AC0182
:102E20009091DA029923C9F180913A01841715062D
:102E300008F440C08D819E81892B91F08091D5024C
:102E40009091D6020E945F24AC019091D9029923FF
:102E500009F46AC0809136018417150608F472C01F
:102E6000BE016F5F7F4F8CED92E00E947523811150
:102E700005C08CED92E00E94DA1681110E94B01616
:102E800086E0FE013196ACEDB2E001900D928A959C
:102E9000E1F72696E3E00C94E02D20913B018AE0D7
:102EA000289F900111242417350720F69F5F9093E7
:102EB000DA0202C09F3FD1F71B81112359F00E9413
:102EC00066159FEF11160CF491E0899F802D112457
:102ED0008093DE021C81112359F00E9466159FEF3A
:102EE00011160CF491E0899F802D11248093DF024C
:102EF0008091DE02882309F49DCF1091DF02112317
:102F000009F498CF0E945815882351F08093DE026F
:102F1000812F0E945815882329F08093DF028ACFE1
:102F200081E0F4CF81E0F9CF209137018AE0289F3A
:102F3000900111242417350708F092CF9F5F9093DA
:102F4000D90202C09F3FD1F71D81112359F00E9481
:102F5000A4159FEF11160CF491E0899F802D112488
:102F60008093E0021E81112359F00E94A4159FEF67
:102F700011160CF491E0899F802D11248093E102B9
:102F80008091E002882309F46BCF1091E1021123B4
:102F900009F466CF0E945815882351F08093E0020F
:102FA000812F0E945815882329F08093E10258CF81
:102FB00081E0F4CF81E0F9CFEF92FF920F931F935E
:102FC000CF93DF93EB01E82FD1110EC0442321F002
:102FD000F0E0EA5FFC4FE4916E2F7E2F8E2FCDB78D
:102FE000DEB7E6E00C94DD2D0D2F10E0282F30E049
:102FF000442329F02A5F3C4FF901249130E0F6E0A8
:10300000CF9FC0011124EFEFF0E0BF010E94342DEB
:10301000AB018C2F90E0880F991FA5E5A49FB0010C
:10302000A59F700D1124861B970B982F990F980F51
:10303000BF01601B710B629FD001639FB00D729F37
:10304000B00D11248B2F9D9FB0011124672F77277E
:10305000EF01C61BD70BBE01629FE001639FD00D3D
:10306000729FD00D11247F01E91AF108E09EB00192
:10307000E19E700DF09E700D1124672F7727E61BDF
:10308000F70BE29F8001E39F100DF29F100D1124BA
:10309000E12F722F4230510599F048F44115510546
:1030A00069F04130510581F0EB2F8D2F07C044307E
:1030B000510569F080F046305105B1F76E2F8FCF82
:1030C000E22F7B2F812FFACFE22F7D2FF7CFEB2F2F
:1030D000822F712FF3CF7B2F822FED2FEFCF41E087
:1030E0000E94DC1708950895EFE3F1E08083618387
:1030F00008950E946F180895CF93DF93762FE9010A
:10310000682F842F0E947918798368838A83DF91DE
:10311000CF91089580916303982F9E7F29F4817049
:1031200082608093630308958635E8F38170846537
:10313000F8CFB0E0A0E0EFE9F8E10C94BF2D88E013
:1031400090E00E94A92E6B017C0184E290E00E9435
:10315000A12E282F30E040E050E060E070E080E0F9
:1031600090E000E20E94EC2DB22FA32FF42FE52F68
:10317000D62FC72F97018601BC29A12BFE295E2FD0
:10318000532B2B2F3A2F4F2F6D2F7C2FCDB7DEB720
:10319000E8E00C94DB2DB0E0A0E0E1EDF8E10C9468
:1031A000BB2D49015A016B017C010E948A188401E0
:1031B000A4016A2D7B2D88E090E00E94D72E940117
:1031C0004A2D5B2DB601C70100E20E94072E622F37
:1031D00084E290E00E94C52ECDB7DEB7ECE00C94FF
:1031E000D72DE3E6F3E083E0808311828FEF8283C3
:1031F00083831482ADE2B3E012968C9112978360C0
:1032000012968C93758123E030E04FEF5FEF60E022
:10321000868197810E94CB1808958091630380FF77
:1032200002C08695089580E00895909167039330D9
:1032300018F49F5F90936703882391F020916303B4
:103240003091640340916503509166036091670378
:10325000709168038091690390916A030E94CB1872
:10326000089581E00E9415190895909167039923AC
:1032700019F0915090936703882391F02091630394
:103280003091640340916503509166036091670338
:10329000709168038091690390916A030E94CB1832
:1032A000089581E00E943519089570E00E94B220CF
:1032B0000895609140018091630380FF0BC080916D
:1032C0003F0123E0829FC001112485599C4F0E9439
:1032D00055190895809141019091420123E0829F08
:1032E000F0011124E559FC4F891748F7118210822B
:1032F00012828F5F3396F8CF9091630390FF0EC0D8
:10330000909141012091420133E0939FF0011124FB
:10331000E559FC4F921718F00E94591908958183BE
:10332000608342839F5F3396F5CFA3E0B0E0EBE983
:10333000F9E10C94C52D9091630390FF0AC09E01A2
:103340002F5F3F4F0E947C184B8169818A810E94C8
:103350007C192396E2E00C94E12DCF93DF93EC01EE
:10336000EC81F0E0EF5FFD4F4491E3E6F3E0628132
:1033700081810E9495198C818F5F8C83DF91CF9121
:103380000895CF93DF93EC01E3E6F3E0438162819C
:103390008C810E9495198C818F5F8C83DF91CF91F6
:1033A0000895A3E0B0E0E7EDF9E10C94C32D8C01A2
:1033B0008091E20281110AC09E012F5F3F4F4FEFC3
:1033C0006FEF0E947C188A818093E202F801648189
:1033D000613069F08091E20240E0662361F040E0F4
:1033E000623011F44091E20280E060E004C060913C
:1033F000E20240E080E00E947C19F801848190E0C4
:10340000019663E070E00E94482D84832396E4E0F7
:103410000C94DF2DA3E0B0E0E0E1FAE10C94BE2DC6
:10342000082FE62EF42EC22E9091630390FF40C029
:1034300020916403281308C080916503861304C09B
:1034400080916603841729F080912F038260809316
:103450002F03E92FE695AE2FB0E0A752BE4F8C9117
:1034600080932D039E7F923039F59E012F5F3F4F51
:103470004F2D6E2D802F0E947C184B8169818A818F
:103480000E947C1900936403E0926503F092660346
:10349000CC2071F020916303609167037091680301
:1034A000302FA7018091690390916A030E94CB1885
:1034B0002396E9E00C94DA2D823019F4F09066033B
:1034C000E1CF8630A1F1893091F18931D9F6E95106
:1034D0006E2F6170B62EE695F0E0EF5FFC4F149111
:1034E000D12C60914301D61618F00E945919CACF09
:1034F000D19EC001112470E00E94342D802FB110A4
:1035000014C0860F20914101622F6D0D7727771F20
:103510009B01220F331F260F371F25593C4F4F2D7C
:103520006E2D0E947C18D394DCCF861BEBCF022F2C
:10353000A9CFE3E6F3E09181282F4381628188E0FF
:10354000890F0E940A1A089581E00E94991A08952D
:10355000E3E6F3E09181282F4381628188EF890FB0
:103560000E940A1A089581E00E94A81A0895E3E6CD
:10357000F3E0628121E1620F08F46FEF282F4381AD
:1035800081810E940A1A089581E00E94B71A089565
:10359000E3E6F3E0628121E1621B08F460E0282F9A
:1035A000438181810E940A1A089581E00E94C81A0D
:1035B0000895E3E6F3E0438121E1420F08F44FEF81
:1035C000282F628181810E940A1A089581E00E9459
:1035D000D91A0895E3E6F3E0438121E1421B08F4A0
:1035E00040E0282F628181810E940A1A089581E0BB
:1035F0000E94EA1A089520E00E940A1A0895EF92A4
:10360000FF921F93CF93DF93EC0110E0EE24EA9436
:10361000F12C60914301161770F00E9459199A819C
:103620008C8190FF27C08F5F8C83DF91CF911F919A
:10363000FF90EF90089520914101422F410F5527AF
:10364000551FCA019A01220F331F280F391F255910
:103650003C4F70E0C7010E94482D962F8C8140910D
:10366000660360916503199F800D11240E947C18E8
:103670001F5FCFCF8150D8CFB0E0A0E0E2E4FBE104
:103680000C94BB2DEC018A81BB24BA9480FD02C04E
:10369000BB24B3948C8181110AC081E0B81222C08E
:1036A0008091430181508093E40281E08C83A12CBE
:1036B0004CE0942E80914301A816B8F00E9459194D
:1036C0008091E40291E0B91259C0811152C08091F9
:1036D000430181508093E4021C82CDB7DEB7ECE059
:1036E0000C94D72D1092E402E0CF00914101CA2C36
:1036F000D12C0C0D1D2D111DC801880F991F080F0D
:10370000191F05591C4FF80111821082128234E0F2
:10371000E32EF12C812C8091E402880D8D301CF178
:10372000692D0E94262D892F082E000C990BC81692
:10373000D90691F4809166038E9DA0018F9D500D56
:1037400011245595479555954795980160916503C6
:10375000809164030E947C188B0CF1E0EF1AF10851
:10376000D1F6A394A7CF87FFDFCF90914301890FB4
:10377000DBCF81508093E402BC82AFCF90E0019612
:103780006091430170E00E94482D8093E4028C8395
:10379000A4CFEF92FF920F931F93CF93DF93EC018F
:1037A0008C81811109C081E08C831092E30292E048
:1037B00090933E0180933D0180914101909142019F
:1037C00023E0829FF0011124E559FC4F891758F13D
:1037D00010E003E060914301161758F10E94591957
:1037E00080913D012091E302280F2093E302909104
:1037F0003E01980F90933E01191654F4022E000CCE
:10380000330B409143014150550B2417350734F0D9
:10381000819580933D01813009F41C82CDB7DEB7DC
:10382000E6E00C94DD2D1182108212828F5F3396B8
:10383000CDCFE12EF12C70E0C7010E94482D2091E0
:103840004101820F482F50E02091E302022E000C2C
:10385000330BE216F306BCF020913E01022E000C61
:10386000330B2E153F057CF0809F900111242559C4
:103870003C4F4091660360916503809164030E9410
:103880007C181F5FA7CFFA01EE0FFF1FE40FF51F93
:10389000E559FC4F118210821282F3CFB0E0A0E014
:1038A000E4E5FCE10C94BB2DEC014C81042F10E00D
:1038B0009801D8010E948C2D9B01AC010E94A22D81
:1038C0004B015C01E0E2F0E0E01BF10BA5E5B0E0AC
:1038D000AC019B010E94A22D6B017C019F01DF01C5
:1038E0000E94842D9B01AC010E94AD2D9B01AC0177
:1038F000280D391D4A1D5B1DC701B6010E945C2DB4
:10390000F22E822F90E039E23F1520F143E0249F10
:103910009001112435952795122F109500E085E52B
:10392000E82EEF1880914301081718F10E945919E9
:103930009C8181E0992319F0903219F48FEF8093E4
:103940003C0180913C01890F8C83CDB7DEB7ECE060
:103950000C94D72D25E530E0B901681B790B9B014C
:10396000220F331F260F371F37FFD4CF2F5F3F4F54
:10397000D1CF8E2D01FD8F2D20914101622F600F3F
:103980007727771F9B01220F331F260F371F2559DB
:103990003C4F412F609165030E947C180F5FC2CF9E
:1039A0000F931F93CF93DF93EC0110E000E0909111
:1039B00043019017110609F06CF40E9459198C818B
:1039C00090E00196817099278C83DF91CF911F91B0
:1039D0000F91089520914101A801420F511D9A01B4
:1039E000220F331F240F351F25593C4F4C81609106
:1039F00065038091640396959017110651F04CF081
:103A0000442349F0409166030E947C180F5F1F4FCA
:103A1000CECF4423B9F340E0F7CFB0E0A0E0E3E13C
:103A2000FDE10C94B72DFC016280448081E0848329
:103A3000E1E0F2E07490E0E8F2E0E491C091660326
:103A4000C695C158D0E0CC0FDD1FCD2FDD27812CCE
:103A500075E0972EAA24AA94B12C55245A94E719FC
:103A6000EE2EF12C80914301881638F00E945919EE
:103A7000CDB7DEB7E0E10C94D32DC82CD12C82E079
:103A8000861568F09C9CF0019D9CF00D1124E85176
:103A9000FD4F809164038083809165038183411091
:103AA00023C09C9CF0019D9CF00D1124E851FD4F1A
:103AB0001382128220914101C601820F911D9C0147
:103AC000220F331F280F391F25593C4F9C9CF001B2
:103AD0009D9CF00D1124E851FD4F42816181808150
:103AE0000E947C188394BECF9C9C80019D9C100DED
:103AF000112408511D4FF80183818823F1F0815072
:103B00008383859DC0011124648170E00E94342D5F
:103B1000FB01FF27EF5FFD4F8491E82FE719E59D3B
:103B2000C0011124B7010E94342D80916603689F63
:103B3000B0011124F8017283BDCF0E946E2EB50131
:103B40000E94482D8C179D070CF0B4CFF2E0F615BB
:103B500098F40E946E2EB5010E94482DF8018083D2
:103B60000E946E2E209165032695622F70E00E94C0
:103B7000482D280FF80121839C9CF0019D9CF00D9D
:103B80001124E851FD4F128280916603893C58F060
:103B900088EC9C9CF0019D9CF00D1124E851FD4F98
:103BA0008483838387CF8431A0F784E1F2CF10929E
:103BB0002F03089528E0E3E6F3E0DC0101900D9285
:103BC0002A95E1F720912D0330912E0340912F0388
:103BD000FC012087318742870895EDE2F3E01182EE
:103BE0008281846082830895E3E6F3E080818E7FA2
:103BF00080830E94ED1DEDE2F3E08281816082838B
:103C00000E94591908950E94ED1D80912B03811186
:103C10000AC081E080932B038091630381708093BD
:103C20002A030E94F41D0895E3E6F3E020812E7F2D
:103C3000208331814281538164817581868197819E
:103C40000E94CB180E94ED1DEDE2F3E082818160BD
:103C500082830E945919089560916303669570E00C
:103C60004BE050E084E491E00E947E2E892B19F411
:103C700081E080932E030E94AE10909325038093E1
:103C8000240380912F03846080932F0308959091E3
:103C9000630390FF38C09170811136C09260909399
:103CA000630380912F03816080932F03662391F03B
:103CB0002091630330916403409165035091660342
:103CC00060916703709168038091690390916A0322
:103CD0000E94CB1860916303669570E04BE050E062
:103CE00084E491E00E947E2E892BA9F00E94ED1DB4
:103CF00081E0809327034091660360916503809182
:103D000064030E94FB1A08958B3210F09465C7CFAC
:103D1000880F982BC4CF0E942C1EEACF682F909159
:103D20006303969581E0890F8B3208F081E00E9451
:103D3000471E089581E00E948E1E0895682F90917D
:103D4000630396958FEF890F09F48AE20E94471E5C
:103D5000089581E00E949E1E089561E00E94471E22
:103D60000895E3E6F3E080818160808386950E9478
:103D7000AD1E08958091630380FF03C00E94141E4E
:103D800008950E94B11E089560E00E94471E0895A4
:103D900080912C03811143C00E94CC0C811104C07E
:103DA0000E946A0D0E94F1180E94991820936303E3
:103DB00030936403409365035093660360936703F5
:103DC000709368038093690390936A0380912F0333
:103DD000836080932F032E7FA1F40E94F1180E942C
:103DE00099182093630330936403409365035093C1
:103DF00066036093670370936803809369039093ED
:103E00006A030E948A180E94ED1D8091630380FF5F
:103E100003C086950E94C41E81E080932C03089500
:103E2000E3E6F3E080818160808386950E94C41E72
:103E3000089510922B0380912A0381110E94101F74
:103E40000E942C1E08951F93CF93DF93EC01162F31
:103E50008A8580FF0CC0888180FF24C08091630325
:103E6000816080936303888186950E94471E8A85BE
:103E700081FF06C0212F4B816A8189810E940A1A25
:103E80008A8582FF05C08985882379F00E942C1ECF
:103E90008A8583FF03C081E080932703DF91CF9160
:103EA0001F9108950E94F41DE2CF0E94ED1DF0CFF6
:103EB000EF92FF920F931F93CF93DF9380912E0386
:103EC000882309F463C080912D03E0916303E69594
:103ED000E81BE0932603823009F05DC0F0E0E35078
:103EE000FE4FE491CE2FD0E00DEA19E18091270337
:103EF000882361F0109227030E94AE10909325034F
:103F00008093240310922903109228030E94AE107C
:103F1000E0912403F09125039C012E1B3F0B2F3FC2
:103F20003F47A0F52091E7022223B1F01092E7026B
:103F30002091E5023091E602821B930B8F3F9F4751
:103F400058F4205D3A483093E6022093E5028091D0
:103F50002F03886080932F03E0902803F0902903BB
:103F6000EC0FFD1FF0932503E093240384E293E01C
:103F7000F80109958091280390912903892B31F448
:103F8000E114F10419F081E08093E702CDB7DEB7C8
:103F9000E6E00C94DD2D863049F4F0E0E650FE4F6B
:103FA000E491CE2FD0E001EC19E1A0CF893051F49B
:103FB000E695F0E0E950FE4FE491CE2FD0E00FEF10
:103FC0001AE194CF8F3051F4E695F0E0EC50FE4FBB
:103FD000E491CE2FD0E00CE31BE188CF853149F48A
:103FE000F0E0EF50FE4FE491CE2FD0E009EC1BE162
:103FF0007DCFC8E2D0E00EE41CE1883109F476CF31
:10400000833239F4EFEEF1E0C591D49101ED19E17D
:104010006DCFC4EFD1E000ED1CE1843209F466CF2E
:10402000C0EDD7E003E718E1853209F05FCF8E2FAE
:1040300063E00E941A2DE92FF0E0E451FE4FE49175
:10404000CE2FD0E00DE01DE151CFFA01811101C06A
:10405000FB0109950895CF93DF93C82FD62F0E94B7
:104060000D198C1748F00E940D198D1728F40E9425
:104070009A1EDF91CF9108958C2F0E94AD1EF9CF2B
:104080001F93CF93DF93EC01FB011581111110C039
:104090000E94CB0B8272FE01E052F847E531F10538
:1040A00008F05EC0EA5DF04D0C947E2D0E94BA1EB1
:1040B000812FDF91CF911F91089549EA5EE16AE96E
:1040C0007EE10E942520F4CF4AE95EE169EA7EE1C3
:1040D000F8CF43EB5AE164EA7AE1F3CF44EA5AE1DC
:1040E00063EB7AE1EECF45ED5AE164EC7AE1E9CF9A
:1040F00044EC5AE165ED7AE1E4CF47EF5AE166EE30
:104100007AE1DFCF46EE5AE167EF7AE1DACF41E5B7
:1041100059E161E379E1D5CF41E359E161E579E125
:10412000D0CF81E00E94AD1EC3CF65E082E00E9447
:104130002B20BECF68E086E0FACF6EE089E0F7CFB3
:1041400064E18FE0F4CF67E185E1F1CF88E1EACF68
:1041500062E289E1ECCF83E2E5CF6AE285E2E7CF74
:1041600011E0A6CF539A4BB1477F5BB15860EFB7D0
:10417000F8949B01220F331F260F371F280F391F7A
:104180002817390741F4EFBF8FE594E00197F1F765
:1041900000C000000895DC016D91CD0178E05BB9AD
:1041A000000000C067FF4BB9660F000000C000C0F0
:1041B00000C04BB900C07A9591F7E2CF0895FC0199
:1041C000680F791F8FEF91E36E177F0709F4089549
:1041D0002191822728E030E087FF06C0880F8927D9
:1041E00021503109C9F7F0CF880FFACFCF93DF9371
:1041F000EC01FB018581882309F4D2C09E01305770
:104200002332310508F0B2C00E94E10C90934C03B8
:1042100080934B03FE01E150F047E232F10520F4B8
:10422000E55CF04D0C947E2D80914B038160809372
:104230004B0393C080914C03886080934C038DC0E6
:1042400080914B038260F3CF80914B038460EFCF6A
:1042500080914B038860EBCF80914C038160EDCF60
:1042600080914C038260E9CF80914B038061DFCF66
:1042700080914B038062DBCF80914B038064D7CF6A
:104280000E94390780914B038068D1CF80914B0306
:104290008C60CDCF80914C038360CFCF80914B0356
:1042A0008E7FC5CF80914C03877FC7CF80914B0312
:1042B0008D7FBDCF80914B038B7FB9CF80914B0316
:1042C000877FB5CF80914C038E7FB7CF80914C0311
:1042D0008D7FB3CF80914B038F7EA9CF80914B030D
:1042E0008F7DA5CF80914B038F7BA1CF0E94390793
:1042F00080914B038F779BCF80914B03837F97CF28
:1043000080914C038C7F99CF80914B0382FB99273E
:1043100090F921E0922790FB82F990FB83F987CFF7
:1043200080914C03982F909591708E7F892B90FBF4
:1043300081F983CF90914B03892F8F7B96FF806407
:1043400076CF0E94390790914B03892F97FB87F90D
:1043500080586DCF81E00E946D0D80914B0390914C
:104360004C030E94E60C0E94390780E0DF91CF9158
:10437000089580E0F0CF90914B03892F8F7E94FFBA
:10438000806155CF90914B03892F8E7F90FF816084
:104390004ECF90914C03892F877F93FF88604DCF3C
:1043A00081E0E4CFCF93DF93EB0186319C4711F599
:1043B0000E94CB0B9D81992399F08A7A91E009F4B0
:1043C00090E090933003811109C089E20E94A30B11
:1043D0000E94240C80E0DF91CF91089585E3F6CF11
:1043E00080913003811104C089E20E94AB0BF0CFB1
:1043F00085E3FBCF81E0EFCF0F931F93CF93DF9344
:10440000C42FD22FFC0185818823C9F04093330348
:104410000E944724909332038093310380E28C0FF3
:10442000883040F4C77081E001C0880FCA95EAF770
:104430000E94E504DF91CF911F910F910895109193
:104440003303141332C080913103909132030E94E0
:104450005F24883C910548F5C0E2CD0F1D17B9F0E7
:1044600080E2810F883040F4177081E001C0880F2E
:104470001A95EAF70E94EC04C83048F481E09D2FB9
:10448000977001C0880F9A95EAF70E94E504802F83
:104490000E94DC04C83070F6D77081E001C0880F3C
:1044A000DA95EAF70E94EC04C5CF80E28C0F8830E1
:1044B00008F6C77081E001C0880FCA95EAF7F2CF0D
:1044C0000F93DB0188519C4787309105A0F5FC01D3
:1044D000E35AF04D0C947E2D06E221EE41EE6AE1A6
:1044E0007CE7CD010E94FC2180E00F91089507E256
:1044F00025EE45EE6BE17CE7F4CF06E221EE40EEDF
:1045000068E17CE7EECF07E225EE44EE69E17CE767
:10451000E8CF06E221EE42EE6CE17CE7E2CF07E273
:1045200025EE46EE6DE17CE7DCCF08E221E045EECA
:104530006EE17CE7D6CF15968C91882319F0109206
:104540003303D3CF81E0D1CF90933A0380933903E3
:1045500008950E94D912811103C0809134030895F7
:10456000E0913903F0913A03309729F00190F081FE
:10457000E02D0995089580E00895E0913903F091C8
:104580003A03309721F00280F381E02D09950895D8
:10459000E0913903F0913A03309739F022E0DC01E1
:1045A0002C930480F581E02D09950895A3E0B0E0F7
:1045B000ECEDF2E20C94C52D2091370330913803D5
:1045C00028173907A1F09093380380933703E091BF
:1045D0003903F0913A03309751F023E029839B830C
:1045E0008A830680F781E02DCE01019609952396F6
:1045F000E2E00C94E12DA3E0B0E0E1E0F3E20C9402
:10460000C52D209135033091360328173907A1F0C5
:104610009093360380933503E0913903F0913A0388
:10462000309751F024E029839B838A830680F781A9
:10463000E02DCE01019609952396E2E00C94E12D40
:104640009C012E5F3F4FAC01485F5F4F80E0241715
:10465000350709F40895F90191919F019923B9F360
:104660008F5FF5CF662349F0FC01329608962191C1
:10467000261729F0E817F907D1F780E0089581E0BF
:1046800008959C01FC0132969FEF80E0419146170E
:1046900051F09F3F19F4411101C0982F8F5F863070
:1046A000A9F79F3F09F40895290F311D97FD3A9509
:1046B000F90162830895FC01329608962191261330
:1046C00003C0DF0111971C92E817F907B9F70895A5
:1046D0000E94412308950E945B230895029626E0DC
:1046E000FC0111922A95E9F70895DC01FB0111966E
:1046F0009C9111978181981322C012968C911297E8
:10470000882319F0928189131AC013968C911397FC
:10471000882319F09381891312C015968C911597EF
:10472000882319F0958189130AC014969C919923C6
:1047300021F081E02481291303C080E001C081E0E1
:104740008170089508950E94A2230895811106C0E2
:1047500081E080933B030E94A323089582E0F9CF78
:1047600083E080933B030E94A32308950E94A62325
:10477000089581E080933B030E94A32308950E9443
:10478000B9230895089508950E94C32308950895B4
:1047900008950E94C2230895CF930E94C7230E94C8
:1047A00058120E94C823C0E08C2F0E94FE10811175
:1047B00005C0CF5FCA30C1F7CF91089581E0FCCF2B
:1047C00085B7806885BF85B7806885BF08951F92CB
:1047D0001FB61F9211248F939F93AF93BF93809125
:1047E0003C03811113C080918F0390919003A0919D
:1047F0009103B09192034196A11DB11D80938F0347
:1048000090939003A0939103B0939203BF91AF91C3
:104810009F918F911F901FBE1F90189580919703B5
:10482000843031F10E94B40310923C0388E190E09F
:1048300020E40FB6F894A895809360000FBE2093F3
:10484000600083B7817F846083BF83B7816083BF4B
:104850007894889583B78E7F83BF0FB6F894A89518
:1048600080916000886180936000109260000FBEAC
:1048700008950E9439070E94BB03089582E084BD19
:1048800093E095BD9AEF97BD80936E0008952FB782
:10489000F89480918F0390919003A0919103B0912F
:1048A00092032FBF08952FB7F89460918F037091F2
:1048B000900380919103909192032FBF08959C01E2
:1048C0004FB7F89480918F0390919003A09191033A
:1048D000B09192034FBF821B930B0895CF92DF924A
:1048E000EF92FF922FB7F894C0908F03D09090036F
:1048F000E0909103F09092032FBFA7019601261B31
:10490000370B480B590BCA01B901FF90EF90DF90AC
:10491000CF90089578941F921FB61F9211248F9301
:104920009F93AF93BF9380918F0390919003A09139
:104930009103B09192030196A11DB11D80938F0345
:1049400090939003A0939103B0939203BF91AF9182
:104950009F918F911F901FBE1F90189587E797E733
:10496000909301088093000888E19AE00FB6F894CC
:10497000A895809360000FBE90936000FFCF88E100
:104980009AE00FB6F894A895809360000FBE9093BC
:104990006000FFCF8EE1489B02C08150E1F7489B49
:1049A000FECF0895589880E28A95F1F7589A0895B5
:1049B000FC013BE03A95F1F798E020E080E031E03F
:1049C00040E14A95F1F7880F489B02C08160232798
:1049D00042E04A95F1F7000040E14A95F1F7915025
:1049E00079F790E19A95F1F799B132E03A95F1F7BC
:1049F000000040E14A95F1F7917092272081920FD3
:104A000090830895A1E0B0E0E8E0F5E20C94C12DB8
:104A100019828C017C01E60EF11C0E151F0541F474
:104A200081E09981911180E02196E6E00C94DD2DE2
:104A30000E94CA24CE0101960E94D824F8018193D5
:104A40008F01EBCF509A589A08955098589AE89A47
:104A5000E9E6F0E080818C7F808308956150770BD8
:104A600091E001C0990F6A95EAF720E031E09111D9
:104A700008C0222391F0589A80E28A95F1F758985D
:104A80000895492F482339F0589A232740E24A9540
:104A9000F1F79695ECCF5898F9CF5898EDCFFF9253
:104AA0000F931F93CF93DF93EC018C01060F111D21
:104AB000C017D10729F4CDB7DEB7E5E00C94DE2DA1
:104AC000F9900E94D22468E08F2D0E942E25F0CF0D
:104AD0001F920F920FB60F9211240F931F932F93D3
:104AE0003F934F935F936F937F938F939F93AF9376
:104AF000BF93EF93FF93CF93DF930F92CDB7DEB7C2
:104B000019820E94CA24CE0101960E94D824082F3F
:104B1000069506950695282F22952570902F95705D
:104B2000290F922F937026952695920F98279770AC
:104B30008981982B09F05CC0053008F059C080E1EC
:104B40008A95F1F7589A509A82E08A95F1F700C059
:104B5000589888E0089F80011124D801AC5EBE4FB0
:104B60001696ED91FC9117973097A9F06091D701B7
:104B70007091D80114962D913C911597260F371FEF
:104B800011968D919C911297680F791F13964C91F5
:104B900013978C910995F801EC5EFE4F63816623B3
:104BA00051F02091D7013091D80184819581820FF5
:104BB000931F0E944F250E94D22480E18A95F1F72D
:104BC00058985098589A80E18A95F1F7F801EC5E70
:104BD000FE4F6081662351F02091D7013091D801BA
:104BE00081819281820F931F0E9402250E94CA2414
:104BF0000F90DF91CF91FF91EF91BF91AF919F9176
:104C00008F917F916F915F914F913F912F911F9164
:104C10000F910F900FBE0F901F9018950F931F9339
:104C2000CF93DF93EC0105970CF04CC0F894509AA9
:104C3000589885E08A95F1F700009C2F969595701D
:104C40008C2F8570980F892F83709695969523E009
:104C5000CC0FDD1F2A95E1F7980F8E01092B0E94DA
:104C6000D22400C068E0802F0E942E2580E18A9522
:104C7000F1F75098589A489B1EC087E090E04899F9
:104C80001CC0FE01EC5EFE4F63816623F9F02091AB
:104C9000D7013091D80184819581820F931F0E94A2
:104CA0000225811113C0509A589A7894DF91CF91C0
:104CB0001F910F91089500C0DECF019729F4509AFB
:104CC000589A789480E0F2CF00C0D9CF0E94CA24CD
:104CD00080E28A95F1F75898509A80E18A95F1F729
:104CE000CC5EDE4F6881662351F02091D701309170
:104CF000D80189819A81820F931F0E944F250E94BB
:104D0000D224789481E0D2CF8091450308959B010D
:104D1000BA01909197039430E9F48F708093E90081
:104D20009FEF8091E800915085FD06C085ED8A9542
:104D3000F1F700009111F5CF8091E80085FF0AC0DE
:104D400050E040E0C9010E9481288091E8008E7700
:104D50008093E800089543E050E0BC0182E00E94A7
:104D60008726089546E050E0BC0182E00E94872635
:104D70000895CF93DF93EC0148E050E0BC0181E05F
:104D80000E94872688E0FE01ADE3B3E001900D921A
:104D90008A95E1F7DF91CF91089580919603811173
:104DA00009C00E94112A0E946E2A8091E20084604C
:104DB0008093E20008951092960308950E94B9230B
:104DC00008956091930381E0611101C080E00E9429
:104DD000B02308959091970381E0943009F080E02A
:104DE000609193030E94B623089542E061EC81E054
:104DF0000E948D2942E261EC82E00E948D2990910F
:104E0000970381E0943009F080E0609193030E9461
:104E1000A623089580919903833009F461C030F48A
:104E20008130D1F1823009F49EC008958A3009F4AE
:104E30008AC08B3009F46FC0893009F050C080916E
:104E40009803813209F04BC080919C0390919D039F
:104E5000029708F044C08091E800877F8093E800C3
:104E60008091E80082FF37C09091F3008091F200BA
:104E7000029731F48091F100813011F0863021F4F5
:104E80008091F100809345038091E8008B778093B7
:104E9000E8000E94C12923C080919803813AF9F467
:104EA0008091E800877F8093E80080919C03909137
:104EB0009D03892B61F468E08DE393E070E00E942C
:104EC000D0288091E8008B778093E800089560E017
:104ED00090E080E0F3CF809197038111C1CF0895D6
:104EE00080919803813AD9F780919C0390919D031A
:104EF000892BA9F78091E800877F8093E800809153
:104F0000E80080FFFCCF809157018093F1008091F1
:104F1000E8008E77BCCF80919803813201F78091B1
:104F20009C0390919D03892BD1F68091E800877FA7
:104F30008093E8000E94C12980919A0380935701D1
:104F40000E943907089580919803813241F680913B
:104F5000E800877F8093E8000E94C12980919B032D
:104F600080934603089580919803813A09F0B7CF62
:104F70008091E800877F8093E8008091E80080FFBF
:104F8000FCCF80914603C1CF84B7877F84BF0FB623
:104F9000F894A895809160008861809360001092D9
:104FA00060000FBE80E890E00FB6F8948093610037
:104FB000909361000FBE0E94BF2308950E94112AA2
:104FC0000E946E2AE2EEF0E0808184608083789413
:104FD0000E94ED2C08958FE491E00E94A422089590
:104FE00080919703853031F480919703853019F0D3
:104FF0000E94392408950E940E24809195038823ED
:1050000099F30E94CC23882379F30E946B280E9495
:105010003907EACF08959A0140919E0350919F036A
:105020000E9413280895492F55274330510519F13F
:1050300068F44130510509F444C04230510509F487
:1050400045C090E080E050E040E025C0413251058D
:1050500049F142325105A9F784E490E046EF54E06B
:1050600061157105C1F08BE790E04BE754E06130CA
:10507000710589F0E6CF99278130910581F000977D
:1050800029F00297F1F6E6E0F4E002C0EAE2F4E08B
:10509000849190E0AF01F901518340830895ECE1E0
:1050A000F4E0F6CF89E090E040E454E0611571054A
:1050B00091F389E090E049E554E06130710559F3DE
:1050C000C0CF82E190E049E654E0E5CF8BE390E089
:1050D0004EE254E0E0CF80E189BD82E189BD09B4B0
:1050E00000FEFDCF8091D8008F7D8093D800809105
:1050F000E00082608093E0008091E00081FDFCCFC1
:105100000895AF92BF92CF92DF92FF920F931F93B9
:10511000CF93DF936C01EB018A010E94E029F82E06
:10512000811123C00115110539F0F80180819181A9
:10513000C81BD90BC80ED91EB12CA12C2097A9F0E1
:105140008091E80085FD22C08091E8008E778093F1
:10515000E80001151105A1F0F80180819181A80EE8
:10516000B91EB182A08285E0F82E8F2DDF91CF91FC
:105170001F910F91FF90DF90CF90BF90AF90089557
:105180000E94E0298823D1F2F82EEFCFF601819119
:105190006F018093F1002197FFEFAF1ABF0ACECFC6
:1051A000FC0180919E0390919F0386179707A0F0C2
:1051B0006115710529F49091E8009E779093E800BD
:1051C00090E06115710551F4911108C08091E800DB
:1051D00082FF34C080E00895BC01F2CF8091970334
:1051E0008823C1F18530C1F18091E80083FD30C092
:1051F0008091E80082FDEACF8091E80080FFE1CF56
:105200008091F3002091F200382F6115710519F09B
:105210002830310558F091E02830310509F090E050
:105220002091E8002E772093E800CBCF81918093E6
:10523000F100615071092F5F3F4FE7CF80919703D5
:10524000882341F0853041F08091E80083FFBECF94
:1052500081E0089582E0089583E00895FC01809143
:105260009E0390919F0386179707A0F06115710523
:1052700029F48091E8008E778093E80090E0611532
:10528000710551F4911108C08091E80082FF35C08A
:1052900080E00895BC01F2CF809197038823C9F183
:1052A0008530C9F18091E80083FD31C08091E8002C
:1052B00082FDEACF8091E80080FFE1CF8091F3008A
:1052C0002091F200382F6115710519F02830310551
:1052D00058F091E02830310509F090E08091E80025
:1052E0008E778093E800CBCF84918093F100319644
:1052F000615071092F5F3F4FE6CF8091970388235C
:1053000041F0853041F08091E80083FFBDCF81E01E
:10531000089582E0089583E00895982F973028F04B
:105320008F708093E90081E008959093E900242F25
:10533000762F50E0981731F07091EC002091ED003D
:105340005091F00021FD02C09F5FE8CF3091EB004B
:105350003E7F3093EB003091ED003D7F3093ED00C8
:105360003091EB0031603093EB007093EC002093B0
:10537000ED005093F0002091EE0027FDE5CF80E096
:1053800008958091980387FF13C08091E80082FF01
:1053900006C08091E8008B778093E80004C080917C
:1053A00097038111F2CF0895809197038823D9F351
:1053B0008091E80080FFF8CF8091E8008E77ECCFF5
:1053C0002091E4003091E50095E6A9012091EC00E0
:1053D000822F817020FF06C08091E80080FF06C008
:1053E00080E008952091E80022FD1AC08091970383
:1053F000882389F0853089F08091EB0085FD0FC00E
:105400002091E4003091E50042175307F9F29150E2
:10541000E1F684E0089582E0089583E0089581E054
:1054200008950E94802A0E94882AE0EEF0E08081A0
:1054300081608083E8EDF0E080818F77808319BC04
:10544000A7EDB0E08C918E7F8C9380818F7E8083DE
:105450001092960308950F931F93CF93DF930E94AA
:10546000802A0E94882AC8EDD0E088818F778883BF
:1054700088818068888388818F7D888319BC109299
:10548000970310929303109295031092940300EEE9
:1054900010E0F80180818B7F808388818160888320
:1054A00042E060E080E00E948D29E1EEF0E0808142
:1054B0008E7F8083E2EEF0E0808181608083808156
:1054C00088608083F80180818E7F808388818061FD
:1054D0008883DF91CF911F910F910895E8EDF0E05F
:1054E00080818F7E8083E7EDF0E080818160808322
:1054F00084E082BF81E0809396030E942B2A089566
:10550000E8EDF0E080818E7F80831092E2000895C4
:105510001092DA001092E10008951F920F920FB6D8
:105520000F9211242F933F934F935F936F937F9329
:105530008F939F93AF93BF93EF93FF938091E1007D
:1055400082FF0BC08091E20082FF07C08091E100E2
:105550008B7F8093E1000E94EC2C8091DA0080FF29
:1055600019C08091D80080FF15C08091DA008E7F2D
:105570008093DA008091D90080FF96C080E189BDD8
:1055800082E189BD09B400FEFDCF81E080939703DD
:105590000E94CD268091E10080FF19C08091E20039
:1055A00080FF15C08091E2008E7F8093E2008091A1
:1055B000E20080618093E2008091D8008062809355
:1055C000D80019BC85E0809397030E94E126809162
:1055D000E10084FF2BC08091E20084FF27C080E1BE
:1055E00089BD82E189BD89B5982F917080FFFBCF7D
:1055F0008091D8008F7D8093D8008091E1008F7ECC
:105600008093E1008091E2008F7E8093E2008091A0
:10561000E20081608093E20080919303882309F483
:1056200049C084E0809397030E94EA268091E100BC
:1056300083FF29C08091E20083FF25C08091E100B3
:10564000877F8093E10082E0809397031092930319
:105650008091E1008E7F8093E1008091E2008E7F57
:105660008093E2008091E20080618093E20042E05A
:1056700060E080E00E948D298091F0008860809336
:10568000F0000E94DE26FF91EF91BF91AF919F91B4
:105690008F917F916F915F914F913F912F910F90DB
:1056A0000FBE0F901F90189519BC109297030E947F
:1056B000DB2670CF8091E30087FD93E09093970302
:1056C000B3CF1F920F920FB60F9211242F933F93D7
:1056D0004F935F936F937F938F939F93AF93BF93FA
:1056E000CF93DF93EF93FF93D091E900DF70809128
:1056F000EC00C82FC17080FDC0E81092E9008091D5
:10570000F000877F8093F00078940E94A52B109280
:10571000E9008091F00088608093F000CD2BCF707D
:10572000C093E900FF91EF91DF91CF91BF91AF91CD
:105730009F918F917F916F915F914F913F912F91A9
:105740000F900FBE0F901F901895AAE2B0E0EBEA01
:10575000FBE20C94C42D88E993E02091F100FC0158
:105760002193CF01F3E0803A9F07B9F70E940A27FF
:105770008091E80083FF1EC1809198039091990366
:105780009A3008F017C1E92FF0E0EC59F04D0C9475
:105790007E2D803899F0823809F00CC180919C03ED
:1057A0008F70873008F006C18093E9008091EB008C
:1057B00085FB882780F91092E90006C08091940348
:1057C00090919503911182609091E800977F90935A
:1057D000E8008093F1001092F1008091E8008E774C
:1057E000E5C0882309F4D3C0823009F0E3C080917A
:1057F0009A038111D6C080919C038F702FEF280FE0
:10580000263008F0D7C08093E9002091EB0020FFFC
:10581000C8C0933031F48091EB0080628093EB003C
:10582000C0C09091EB0090619093EB0021E030E0DC
:1058300001C0220F8A95EAF72093EA001092EA004D
:105840008091EB008860EACF8111B4C010919A0377
:105850001F778091E3008078812B8093E300809113
:10586000E800877F8093E8000E94C1298091E800CA
:1058700080FFFCCF8091E30080688093E30082E0AA
:10588000111183E08093970395C08058823008F00F
:1058900091C080919A0390919B038C3D23E09207E5
:1058A000A1F583E08A838AE289834FB7F894DE0109
:1058B000139620E03EE051E2E32FF0E050935700D2
:1058C000E49120FF03C0E295EF703F5FEF708E2FF1
:1058D00090E0EA30C0F0C7968D939D932F5F2431FE
:1058E00059F74FBF8091E800877F8093E8006AE214
:1058F00070E0CE0101960E94D0288091E8008B775D
:105900008093E80057C0C096E7CF60919C037091E8
:105910009D03AE014F5F5F4F0E940B28BC01892B96
:1059200009F448C09091E800977F9093E80089813E
:105930009A810E942E29E1CF8038E1F58091E8001C
:10594000877F8093E800809193038093F10045CF97
:10595000811130C090919A03923060F58091E800F7
:10596000877F8093E800909393030E94C1298091E0
:105970009303882311F084E005C08091E30087FD44
:10598000FACF81E0809397030E94F52613C080919F
:105990009A03813079F481E0933009F080E08093BC
:1059A00095031092E9008091E800877F8093E800DA
:1059B0000E94C1298091E80083FF0AC08091E8001D
:1059C000877F8093E8008091EB0080628093EB00FA
:1059D000AA96E3E00C94E02D0895CF93809197036D
:1059E0008823A1F0C091E900CF709091EC00892F3D
:1059F000817090FD80E8C82B1092E9008091E8004A
:105A000083FD0E94A52BCF70C093E900CF9108952C
:105A10000E94112A109297030895E8EDF0E080812A
:105A2000806180838AE18A95F1F700C08091D90076
:105A300081700895991B79E004C0991F961708F0AA
:105A4000961B881F7A95C9F78095089587FB082EC5
:105A5000062687FD819567FD61950E941A2D0EF43B
:105A6000919507FC81950895AA1BBB1B51E107C0C6
:105A7000AA1FBB1FA617B70710F0A61BB70B881FDE
:105A8000991F5A95A9F780959095BC01CD0108956D
:105A900097FB072E16F4009407D077FD09D00E94DB
:105AA000342D07FC05D03EF4909581959F4F0895C5
:105AB000709561957F4F0895A1E21A2EAA1BBB1B1A
:105AC000FD010DC0AA1FBB1FEE1FFF1FA217B307CA
:105AD000E407F50720F0A21BB30BE40BF50B661FE0
